:100000000C9462000C948A000C948A000C948A0070
:100010000C948A000C948A000C948A000C948A0038
:100020000C948A000C948A000C948A000C94460666
:100030000C948A000C948A000C948A000C948A0018
:100040000C94FC050C948A000C948A000C948A0091
:100050000C948A000C948A000C948A000C948A00F8
:100060000C9402070C948A00000000002300260074
:10007000290000000000240027002A0000000000E2
:10008000250028002B0004040404040404040202D4
:100090000202020203030303030301020408102007
:1000A0004080010204081020010204081020000012
:1000B0000008000201000003040700000000000027
:1000C0000000660811241FBECFEFD8E0DEBFCDBF11
:1000D00012E0A0E0B1E0E6EDF2E202C005900D9280
:1000E000AA33B107D9F723E0AAE3B2E001C01D9219
:1000F000A334B207E1F710E0C2E6D0E004C02197D4
:10010000FE010E94710FC136D107C9F70E94AC08E9
:100110000C9469110C9400008F929F92AF92BF9241
:10012000FF920F931F93CF93DF93F09030032BE058
:100130002F1508F44CC02091320308E512E0021B91
:10014000110927FD1395000F111F000F111F20919A
:100150003103C8E8D0E0C21BD10927FDD395CC0FED
:10016000DD1FCC0FDD1F4E010D2E000CAA08BB08B1
:100170009801012E000C440B550B281939094A0926
:100180005B09DC010E944F0E24EB30E040E050E0C0
:100190000E94250E820E931EA41EB51E8C169D066F
:1001A0002CF0E801801691060CF4E4012297CC0FA4
:1001B000DD1F2FB7F8948F2D90E0FC01EE0FFF1F8D
:1001C000E80FF91FE55FFC4FD283C1832FBFDF919A
:1001D000CF911F910F91FF90BF90AF909F908F9004
:1001E0000895833081F028F4813099F08230A9F0AD
:1001F00008958730A9F08830C9F08430B1F4809137
:1002000080008F7D03C0809180008F778093800075
:10021000089584B58F7784BD089584B58F7DFBCF15
:100220008091B0008F778093B00008958091B000E6
:100230008F7DF9CF1F93CF93DF93282F30E0F90103
:10024000E255FF4F8491F901E656FF4FD491F90131
:10025000EA57FF4FC491CC23A9F0162F81110E94B9
:10026000F100EC2FF0E0EE0FFF1FE458FF4FA591D7
:10027000B4918FB7F894EC91111108C0D095DE239A
:10028000DC938FBFDF91CF911F910895DE2BF8CFC4
:10029000CF93DF9390E0FC01E656FF4F24918A57FD
:1002A0009F4FFC0184918823D1F090E0880F991F23
:1002B000FC01EE58FF4FA591B491FC01E458FF4FAB
:1002C000C591D49161110EC09FB7F8948C91E22F23
:1002D000E0958E238C932881E223E8839FBFDF91F2
:1002E000CF9108958FB7F894EC91E22BEC938FBFE8
:1002F000F6CF3FB7F8948091FB029091FC02A09159
:10030000FD02B091FE0226B5A89B05C02F3F19F053
:100310000196A11DB11D3FBFBA2FA92F982F882785
:10032000BC01CD01620F711D811D911D42E0660F60
:10033000771F881F991F4A95D1F708958F929F9232
:10034000AF92BF92CF92DF92EF92FF926B017C014E
:100350000E9479014B015C01C114D104E104F10454
:10036000B9F00E947901681979098A099B09683EE8
:1003700073408105910580F321E0C21AD108E1089C
:10038000F10888EE880E83E0981EA11CB11CE4CF12
:10039000FF90EF90DF90CF90BF90AF909F908F90A5
:1003A000089508950895AF92BF92CF92DF92EF9291
:1003B000FF920F931F93CF93DF936C017B018B010F
:1003C000040F151FEB015E01AE18BF08C017D1075F
:1003D00059F06991D601ED91FC910190F081E02DE9
:1003E000C6010995892B79F7C501DF91CF911F913E
:1003F0000F91FF90EF90DF90CF90BF90AF90089556
:10040000089520917B02260F3327331F21323105B7
:10041000ECF42091C402FC0190E080E0243069F00B
:1004200082E00895A0917B022191AC01455A5D4F75
:10043000A40FB52FB11D2C930196861798F38091C8
:100440007B02680F60937B0280E0089581E008954D
:100450001092C40281E08093C30210929E0261E078
:1004600082E10E941A0161E083E10E941A01E9EB36
:10047000F0E080818E7F808380818D7F808388E41F
:100480008093B80085E48093BC000895CF93DF93F8
:1004900091E090935A028823B9F0C091B800D091AE
:1004A000BA008091BC008A7B8093BC0060E082E14E
:1004B0000E941A0160E083E10E941A010E94280252
:1004C000D093BA00C093B800DF91CF9108950895FA
:1004D000E091F4028091F302E81730F4F0E0E65C7A
:1004E000FD4F808190E008958FEF9FEF08959091E8
:1004F000F4028091F3022FEF3FEF981748F4E92FB1
:10050000F0E0E65CFD4F208130E09F5F9093F402C5
:10051000C90108958091F3029091F402891B990B0F
:100520000895CF92DF92EF92FF920F931F93CF9394
:10053000DF937C01CB018A012091CA02222389F03A
:10054000EB016B01C40ED51ECC15DD0569F0699178
:10055000D701ED91FC910190F081E02DC701099543
:10056000F3CF642F0E940102C801DF91CF911F9148
:100570000F91FF90EF90DF90CF900895CF93DF938E
:100580001F92CDB7DEB769832091CA022223F9F00A
:100590002091F102203258F021E030E0FC01338359
:1005A000228390E080E00F90DF91CF9108958091B9
:1005B000F202E82FF0E0E553FD4F998190838F5FC1
:1005C0008093F2028093F10281E090E0ECCF61E051
:1005D000CE0101960E940102F7CFCF92DF92EF92F7
:1005E000FF920F931F93CF93DF93FC01C48121E00F
:1005F0002093CA02C093EB021092F2021092F10211
:100600008385682B8FEF92E00E94BE02D091F102A9
:10061000D13208F092C00E9479016B017C01809177
:10062000C402811165C082E08093C40281E080939E
:10063000C3028FEF8093C2021092C102D093C00216
:10064000ABECB2E0E0EAF2E080E0D81385C01092B3
:100650009F0280919F02CC0FC82BC0939F02809174
:100660009E02813009F07CC010929E020E947901A6
:100670006B017C0180919F028093BB008091C60238
:100680009091C702A091C802B091C902892B8A2B10
:100690008B2B99F00E9479010091C6021091C7023C
:1006A0002091C8023091C9026C197D098E099F09F9
:1006B0000617170728073907E0F18091BC0083FD72
:1006C000D9CF85EC8093BC000E9479016B017C013D
:1006D0008091C402823009F445C08091C2028F3FEC
:1006E00061F18091C202803241F18091C20225C045
:1006F0008091C6029091C702A091C802B091C90230
:10070000892B8A2B8B2B09F48ACF0E9479010091C7
:10071000C6021091C7022091C8023091C9026C191B
:100720007D098E099F09061717072807390708F062
:1007300076CF8091C5020E9446021092F20210927A
:10074000F1021092CA02DF91CF911F910F91FF9099
:10075000EF90DF90CF9008959D9191938F5F75CF2B
:1007600085EEB0CF8091C6029091C702A091C802D9
:10077000B091C902892B8A2B8B2B09F4A9CF0E9437
:1007800079010091C6021091C7022091C8023091F0
:10079000C9026C197D098E099F09061717072807DA
:1007A000390708F095CFC5CF90E080E00895CF934A
:1007B000DF939C01FC01E255FF4F8491F901E6565D
:1007C000FF4FD491F901EA57FF4FC491CC2379F040
:1007D00081110E94F100EC2FF0E0EE0FFF1FE859AD
:1007E000FF4FA591B491EC91ED2381E009F480E0F5
:1007F0008170DF91CF910895FC0101900020E9F70D
:100800003197AF01481B590BBC0183E393E00C9473
:10081000D3018F929F92AF92BF920F931F93CF936A
:10082000DF93CDB7DEB7A1970FB6F894DEBF0FBE4A
:10083000CDBF19A2423008F44AE08E010F5D1F4F70
:10084000842E912CB12CA12CA50194010E948E0E16
:10085000E62FB901CA01EA30F4F4E05DD801EE9365
:100860008D01232B242B252B79F790E080E0109726
:1008700019F0CD010E94FC03A1960FB6F894DEBFDB
:100880000FBECDBFDF91CF911F910F91BF90AF9061
:100890009F908F900895E95CE1CF0F931F93CF93C2
:1008A0008C01C62F0E94ED026C2F6460C8010E946B
:1008B000ED026C2F6B7FC8010E94ED0283EC90E08B
:1008C0000197F1F7CF911F910F9108950F931F9307
:1008D000CF93DF938C01D62FC42F607F642B0E94AF
:1008E0004D0480E1D89FB00111246C2BC801DF9129
:1008F000CF911F910F910C944D04CF93DF93CDB7FF
:10090000DEB728970FB6F894DEBF0FBECDBF98E0D4
:10091000E6E0F1E0DE01119601900D929A95E1F783
:1009200090913B03981708F48FEF90E0880F991F80
:1009300021E030E02C0F3D1F820F931FFC016081EE
:10094000606840E083E393E028960FB6F894DEBF3A
:100950000FBECDBFDF91CF910C94660440E061E003
:1009600083E393E00E9466048BE39FE10197F1F734
:100970000895EF92FF920F931F93CF93DF937C0123
:100980008B01EA010E94AE0480E00E947D04F70121
:10099000448155816081718183E393E00E94D3019A
:1009A00081E00E947D04F80144815581608171815C
:1009B00083E393E00E94D301BE01DD0F880B990B06
:1009C000DF91CF911F910F91FF90EF900C949E01BA
:1009D00041E00E94660481E090E00895FC0180817E
:1009E0009181009711F00C94131008950F931F93A9
:1009F000CF93DF93EC0188819981009759F02A8188
:100A00003B812617370730F081E0DF91CF911F91AE
:100A10000F9108958B016F5F7F4F0E949C1000978C
:100A200059F0998388831B830A832C813D81232B72
:100A300059F7FC011082E8CF80E0E7CFEF92FF92F8
:100A40000F931F93CF93DF93FB0101900020E9F7F1
:100A50003197E61BF70BE1F07B018C01DC0114966A
:100A6000CD91DC91CE0FDF1FBE010E94F6048823DA
:100A700081F0F8012081318184819581B701820F55
:100A8000931F0E946211D8011596DC93CE931497A0
:100A900081E0DF91CF911F910F91FF90EF9008952A
:100AA000EF92FF920F931F93CF93DF93EC017B01A3
:100AB0008A01BA010E94F60428813981811114C08B
:100AC0002115310519F0C9010E94131019821882ED
:100AD0001D821C821B821A82CE01DF91CF911F9151
:100AE0000F91FF90EF9008951D830C83B701C9010A
:100AF0000E946211F1CFEF92FF920F931F93CF9359
:100B0000DF93CDB7DEB762970FB6F894DEBF0FBEA6
:100B1000CDBF8C01CB01F8011182108213821282A9
:100B2000158214824AE09E012F5F3F4F7901B9017F
:100B30000E94CC0CF70101900020E9F73197AF013A
:100B40004E195F09B701C8010E94500562960FB6A1
:100B5000F894DEBF0FBECDBFDF91CF911F910F91F3
:100B6000FF90EF900895FC0111821082138212828F
:100B700015821482FB0101900020E9F73197AF0143
:100B8000461B570B0C94500585ED8093BC0080915B
:100B9000C6029091C702A091C802B091C9020796FF
:100BA000A11DB11D23E0B695A795979587952A9528
:100BB000D1F72091BC0024FD03C01092C402089517
:100BC0004091C6025091C7026091C8027091C9025B
:100BD000452B462B472B69F30097A105B10541F042
:100BE0002AE22A95F1F700C00197A109B109E1CFE6
:100BF0008091C5020C9446021F920F920FB60F927D
:100C000011242F933F938F939F93AF93BF93809122
:100C1000F7029091F802A091F902B091FA02309196
:100C2000F60223E0230F2D3758F50196A11DB11DC3
:100C30002093F6028093F7029093F802A093F902B2
:100C4000B093FA028091FB029091FC02A091FD0208
:100C5000B091FE020196A11DB11D8093FB029093FD
:100C6000FC02A093FD02B093FE02BF91AF919F9151
:100C70008F913F912F910F900FBE0F901F9018955D
:100C800026E8230F0296A11DB11DD2CF1F920F920D
:100C90000FB60F9211242F933F934F935F936F934F
:100CA0007F938F939F93AF93BF93CF93DF93EF93F4
:100CB000FF938091EC02C0912F03D0E087FF24C006
:100CC00010928500109284008091EC028F5F8093D7
:100CD000EC028091EC02082E000C990B8C179D07FA
:100CE00024F48091EC028C30C4F1809184009091C6
:100CF0008500049680349C4908F47AC08091840071
:100D000090918500049676C08091EC02082E000C2C
:100D1000990B8C179D07C4F6E091EC028E2FEE0F15
:100D2000990BFC01EE0FFF1FE80FF91FE55FFC4F69
:100D3000808186FFC9CFE091EC028E2FEE0F990BD8
:100D4000FC01EE0FFF1FE80FF91FE55FFC4F8081EC
:100D500060E08F730E941A01B7CF20918400309118
:100D60008500E091EC028E2FEE0F990BFC01EE0F47
:100D7000FF1FE80FF91FE55FFC4F81819281820F11
:100D8000931F9093890080938800E091EC028E2F4E
:100D9000EE0F990BFC01EE0FFF1FE80FF91FE55F47
:100DA000FC4F808186FF11C0E091EC028E2FEE0F88
:100DB000990BFC01EE0FFF1FE80FF91FE55FFC4FD9
:100DC000808161E08F730E941A01FF91EF91DF91A2
:100DD000CF91BF91AF919F918F917F916F915F91D3
:100DE0004F913F912F910F900FBE0F901F9018952C
:100DF00080E49CE990938900809388008FEF809332
:100E0000EC02E3CF1F920F920FB60F9211242F9393
:100E10003F934F935F936F937F938F939F93AF9382
:100E2000BF93EF93FF938091B900887F803609F4D8
:100E30004AC0F0F5883209F4A7C018F5803109F4EA
:100E40009BC0B8F4882309F4F9C0883009F494C031
:100E5000FF91EF91BF91AF919F918F917F916F9192
:100E60005F914F913F912F910F900FBE0F901F9068
:100E70001895883109F488C0803251F78093C202F6
:100E800014C0803409F49DC040F48033B9F3883332
:100E9000F9F68093C20285ECB0C0803509F485C0B4
:100EA000883509F496C0883499F60E94C405D0CFDD
:100EB000883909F48CC038F5883729F050F4883621
:100EC00011F0803729F683E08093C40210929D02CE
:100ED00057C0883809F47BC0803919F0803809F090
:100EE000B7CF80919D02803208F071C0E0919D02E1
:100EF00081E08E0F80939D028091BB00F0E0E3586B
:100F0000FD4F80833DC0803B39F0E0F4803A09F426
:100F100079C0883A09F09CCF84E08093C402109293
:100F20007C0210927B02E091EF02F091F0020995B1
:100F300080917B0281110FC081E080937B0210922F
:100F40005B0209C0803C09F4A6CF883C09F4A3CF1A
:100F5000883B09F07DCFE0917C0281E08E0F809389
:100F60007C02F0E0E55AFD4F80818093BB009091B8
:100F70007C0280917B0229C080919F028093BB00FC
:100F800085EC8093BC0064CF9091C1028091C00237
:100F9000981758F5E091C10281E08E0F8093C1024D
:100FA000F0E0E056FD4F8081E9CFE091C10281E0A1
:100FB0008E0F8093C1028091BB00F0E0E056FD4FA0
:100FC00080839091C1028091C0029817C8F285E891
:100FD000D8CFE091C10281E08E0F8093C102809151
:100FE000BB00F0E0E056FD4F80838091C302811189
:100FF0005CCF81E080939E0284EA8093BC001092D3
:10100000C40226CF85EC8093BC001092C40280916C
:101010009D02803230F4E0919D02F0E0E358FD4FF4
:10102000108260919D0270E0E091ED02F091EE027D
:101030008DE792E0099510929D020ACF1092C202AC
:1010400034CFCF92DF92EF92FF920F931F93E82F4E
:10105000F92F05C0015011092109310961F1908171
:1010600096239417B9F305C00150110921093109DC
:1010700011F1908196239413F7CFC12CD12CE12C40
:10108000F12C0AC08FEFC81AD80AE80AF80A0C1522
:101090001D052E053F0579F080818623841791F385
:1010A0006C2D7D2D8E2D9F2D1F910F91FF90EF9018
:1010B000DF90CF90089560E070E080E090E01F91B5
:1010C0000F91FF90EF90DF90CF9008951092020360
:1010D0001092010388EE93E0A0E0B0E08093030358
:1010E00090930403A0930503B093060382E191E07B
:1010F000909300038093FF02109236031092350301
:1011000084E291E0909334038093330380E28093F0
:10111000370380E180933C0382E080933D0310928B
:101120003E0380912F038C3098F491E0980F9093B8
:101130002F038093300390E0FC01EE0FFF1FE80FB8
:10114000F91FE55FFC4F88EB9BE092838183089554
:101150008FEF809330030895CF93DF93CDB7DEB741
:1011600062970FB6F894DEBF0FBECDBF789484B5FA
:10117000826084BD84B5816084BD85B5826085BD93
:1011800085B5816085BD80916E00816080936E0021
:101190001092810080918100826080938100809113
:1011A00081008160809381008091800081608093C4
:1011B00080008091B10084608093B1008091B00084
:1011C00081608093B00080917A00846080937A007F
:1011D00080917A00826080937A0080917A008160A9
:1011E00080937A0080917A00806880937A001092D0
:1011F000C1001092F4021092F3021092F2021092C7
:10120000F1020E94280281ED91E09093F002809318
:10121000EF0282ED91E09093EE028093ED02109246
:10122000380380913D03823018F098E090933803A2
:1012300080933B0362E370E080E090E00E949E01B7
:1012400060913E0383E393E00E94ED0268EE73E059
:1012500080E090E00E949E0160E383E393E00E94BF
:101260004D040BE416E4C8010197F1F760E383E352
:1012700093E00E944D04C8010197F1F760E383E316
:1012800093E00E944D0483E592E00197F1F760E25C
:1012900083E393E00E944D0460913803606240E074
:1012A00083E393E00E94660484E08093390340E086
:1012B0006CE083E393E00E9466040E94AE0482E047
:1012C00080933A0340E066E083E393E00E94660483
:1012D00040E062E083E393E00E9466048BE39FE1D9
:1012E0000197F1F788E080933E0360E083E393E0A9
:1012F0000E94ED0261E087E00E94480160E086E024
:101300000E94480160E082E00E94480160E083E0C2
:101310000E94480160E084E00E94480160E085E0AE
:101320000E944801809130038C3008F051C061E088
:1013300089E00E94480180913003282F30E0F901B4
:10134000EE0FFF1FE20FF31FE55FFC4F9081907CD3
:101350009960908310923103109232032CE0622F37
:101360000E94650F829FB001112430E020E0AB01A4
:10137000420F531FFA01EE0FFF1FE40FF51FE55F49
:10138000FC4F908196FD16C02F5F3F4F2C303105EA
:1013900071F781110FC01092800082E0809381006C
:1013A0001092850010928400B19A80916F00826043
:1013B00080936F00E09130038E2F90E0FC01EE0FE0
:1013C000FF1FE80FF91FE55FFC4F80818064808379
:1013D00090E080E00E948C006CE271E0CE0101960A
:1013E0000E94B30569E371E0CE0107960E94B30540
:1013F00046E950E0BE016F5F7F4FCE0107960E9425
:10140000B904CE0107960E94EE04CE0101960E9417
:10141000EE0463E2A62EB12C7CE8272E70E0372E76
:10142000E0E08E2EE0E09E2E60E087E00E941A0150
:101430008FE090E00197F1F761E087E00E941A01E8
:10144000C5010197F1F760E087E00E941A01E0EA28
:10145000F0E06491F1018491E82FF0E0EE0FFF1FBE
:10146000E859FF4F8591949100E315E720E030E0C3
:10147000462F0E942108611571058105910509F427
:101480005CC16F5F7F4F8F4F9F4F9F7061157105DC
:101490008105910509F451C10E94080D28E23EE73B
:1014A0004CE05DE30E94670D20E030E040E05FE348
:1014B0000E94670D2B013C018091F5028111E1C072
:1014C00020E030E040E451E4C301B2010E94010D8C
:1014D00018160CF4D6C081E08093F50282E090E00B
:1014E0000E94D703082F10E083E090E00E94D7030A
:1014F000882311F00F5F1F4F84E090E00E94D70314
:10150000882311F00F5F1F4F85E090E00E94D70302
:10151000882311F00F5F1F4F68E372E0CE010D9634
:101520000E94B30582E090E00E94D703882331F047
:1015300068E471E0CE010D960E941E0583E090E004
:101540000E94D703882331F06BE471E0CE010D9641
:101550000E941E0584E090E00E94D703882331F0AA
:101560006EE471E0CE010D960E941E0585E090E0CC
:101570000E94D703882331F061E571E0CE010D961A
:101580000E941E0589899A89892B29F0ED85FE859F
:101590008081811108C043E050E064E571E0CE0134
:1015A0000D960E94500582E090E00E94D703EE2441
:1015B000E394F12C81111DC083E090E00E94D703D9
:1015C00022E0E22EF12C811114C084E090E00E9410
:1015D000D70393E0E92EF12C81110BC085E090E058
:1015E0000E94D703F12CE12C882319F084E0E82E27
:1015F000F12C68E571E0CE0101960E94B30567E623
:1016000071E0CE0107960E94B30546E950E0BE01A5
:101610006F5F7F4FCE0107960E94B904CE010796F7
:101620000E94EE04CE0101960E94EE040115110500
:1016300009F08BC064E771E0CE0101960E94B3050A
:1016400061E871E0CE0107960E94B30548EC50E0D6
:10165000BE016F5F7F4FCE0107960E94B904CE0195
:1016600007960E94EE04CE0101960E94EE0490E0DF
:1016700080E00E948C000E94AE04CE010D960E9474
:10168000EE048091F502882349F120E030E040EA41
:1016900051E4C301B2010E945B0F87FD1FC010928D
:1016A000F50262EF71E0CE0101960E94B3056FEF83
:1016B00071E0CE0107960E94B3054CED55E0BE01E6
:1016C0006F5F7F4FCE0107960E94B904CE01079647
:1016D0000E94EE04CE0101960E94EE048091F50274
:1016E00081111EC00E947D048EE092E00E94FC03E6
:1016F00081E00E947D048FE192E00E94FC03A3013F
:101700009201C301B2010E94600F882309F4CCC08A
:1017100087E292E00E94FC0383E392E00E94FC03D4
:101720006CE271E080E090E00E949E0181149104DF
:1017300009F47ACE0E94000077CE412C40EC542E62
:1017400049E7642E44E4742EB7CEB801CE01019669
:101750000E947B056EE871E0CE0107960E94B305FA
:1017600046E950E0BE016F5F7F4FCE0107960E94B1
:10177000B904CE0107960E94EE04CE0101960E94A4
:10178000EE041A8219821C821B821E821D826D85C4
:101790007E856115710531F049895A89CE0101961E
:1017A0000E9450056EE971E0CE0107960E94B305D4
:1017B00048EC50E0BE016F5F7F4FCE0107960E945C
:1017C000B904CE0107960E94EE04CE0101960E9454
:1017D000EE04B701CE0101960E947B056AEA71E032
:1017E000CE0107960E94B30548EC50E0BE016F5F42
:1017F0007F4FCE0107960E94B904CE0107960E9442
:10180000EE04CE0101960E94EE0467EB71E0CE017A
:1018100001960E94B30565EC71E0CE0107960E9427
:10182000B30546E950E0BE016F5F7F4FCE010796DA
:101830000E94B904CE0107960E94EE04CE010196E3
:101840000E94EE048AE590E00E948C0064EC79E04E
:1018500080E090E00E949E0163ED71E0CE01019670
:101860000E94B30563EE71E0CE0107960E94B305B6
:1018700046E950E0BE016F5F7F4FCE0107960E94A0
:10188000B904CE0107960E94EE04CE0101960E9493
:10189000EE0490E080E00E948C0066E970E080E059
:1018A00090E00E949E01E7CE73016201E894F7F890
:1018B0002FEF3FEF4FE75FE7C701B6010E94600FD0
:1018C00081110DC02FEF3FEF4FE75FE7C701B60172
:1018D0000E94010D18161CF48BE292E01BCF2FEF33
:1018E0003FEF4FE75FE4C301B2010E945B0F1816A0
:1018F0001CF48FE292E00ECF2FEF3FEF4FE75FEC4B
:10190000C301B2010E94010D87FDF3CF20E030E05A
:10191000A901C301B2010E94010D87FF0AC041E085
:101920006DE283E393E00E94660477FA709477F89F
:1019300070942DEC3CEC4CE45DE3C301B2010E94D9
:10194000C00E6B017C010E942C0F2B013C010E94F8
:10195000060D9B01AC01C701B6010E94BF0E6B01D1
:101960007C014AE0C301B2010E94090441E06EE239
:1019700083E393E00E94660420E030E040E251E41B
:10198000C701B6010E94670D0E942C0F90E080E015
:101990004AE00E940904C0CEBB274A3031F49923A3
:1019A00022F4BDE2909581959F4F0C94D80CBB27F3
:1019B000FB015527AA27880F991FAA1FA41710F00B
:1019C000A41B83955051B9F7A05DAA3308F0A95D17
:1019D000A193009779F7B111B1931192CB010C94B7
:1019E000F10CDC01FC01672F71917723E1F732974D
:1019F00004C07C916D9370836291AE17BF07C8F3EA
:101A000008950E94430D08F481E00895E89409C008
:101A100097FB3EF490958095709561957F4F8F4F21
:101A20009F4F9923A9F0F92F96E9BB279395F69537
:101A3000879577956795B795F111F8CFFAF4BB0FB5
:101A400011F460FF1BC06F5F7F4F8F4F9F4F16C019
:101A5000882311F096E911C0772321F09EE8872FA3
:101A6000762F05C0662371F096E8862F70E060E05F
:101A70002AF09A95660F771F881FDAF7880F9695D8
:101A8000879597F90895990F0008550FAA0BE0E87C
:101A9000FEEF16161706E807F907C0F01216130630
:101AA000E407F50798F0621B730B840B950B39F470
:101AB0000A2661F0232B242B252B21F408950A26D6
:101AC00009F4A140A6958FEF811D811D08950E9404
:101AD0007A0D0C94EB0D0E94DD0D38F00E94E40DA0
:101AE00020F0952311F00C94D40D0C94DA0D1124F0
:101AF0000C941F0E0E94FC0D70F3959FC1F3950F7F
:101B000050E0551F629FF001729FBB27F00DB11D81
:101B1000639FAA27F00DB11DAA1F649F6627B00D11
:101B2000A11D661F829F2227B00DA11D621F739FFA
:101B3000B00DA11D621F839FA00D611D221F749F08
:101B40003327A00D611D231F849F600D211D822F4F
:101B5000762F6A2F11249F5750409AF0F1F0882376
:101B60004AF0EE0FFF1FBB1F661F771F881F9150A3
:101B70005040A9F79E3F510580F00C94D40D0C9471
:101B80001F0E5F3FE4F3983ED4F3869577956795F3
:101B9000B795F795E7959F5FC1F7FE2B880F911DCD
:101BA0009695879597F9089597F99F6780E870E073
:101BB00060E008959FEF80EC089500240A941616C3
:101BC000170618060906089500240A94121613062B
:101BD000140605060895092E0394000C11F48823B9
:101BE00052F0BB0F40F4BF2B11F460FF04C06F5FD5
:101BF0007F4F8F4F9F4F089557FD9058440F551FAB
:101C000059F05F3F71F04795880F97FB991F61F07E
:101C10009F3F79F087950895121613061406551FF5
:101C2000F2CF4695F1DF08C0161617061806991F61
:101C3000F1CF86957105610508940895E894BB2756
:101C400066277727CB0197F90895052E97FB1EF499
:101C500000940E943C0E57FD07D00E948E0E07FC98
:101C600003D04EF40C943C0E509540953095219540
:101C70003F4F4F4F5F4F08959095809570956195B8
:101C80007F4F8F4F9F4F08950E94B00EA59F900DDC
:101C9000B49F900DA49F800D911D11240895B7FF4E
:101CA0000C94440E0E94440E821B930B08952F92B5
:101CB0003F924F925F926F927F928F929F92AF92DC
:101CC000BF92CF92DF92EF92FF920F931F93CF9329
:101CD000DF93CDB7DEB7CA1BDB0B0FB6F894DEBFC0
:101CE0000FBECDBF09942A88398848885F846E84E6
:101CF0007D848C849B84AA84B984C884DF80EE8030
:101D0000FD800C811B81AA81B981CE0FD11D0FB638
:101D1000F894DEBF0FBECDBFED010895A1E21A2EEB
:101D2000AA1BBB1BFD010DC0AA1FBB1FEE1FFF1F7F
:101D3000A217B307E407F50720F0A21BB30BE40BCF
:101D4000F50B661F771F881F991F1A9469F7609516
:101D50007095809590959B01AC01BD01CF010895D0
:101D6000A29FB001B39FC001A39F700D811D1124DC
:101D7000911DB29F700D811D1124911D0895505821
:101D8000BB27AA270E94D70E0C94EB0D0E94DD0DF5
:101D900038F00E94E40D20F039F49F3F19F426F446
:101DA0000C94DA0D0EF4E095E7FB0C94D40DE92FBA
:101DB0000E94FC0D58F3BA17620773078407950752
:101DC00020F079F4A6F50C941E0E0EF4E0950B2E7F
:101DD000BA2FA02D0B01B90190010C01CA01A0017D
:101DE0001124FF27591B99F0593F50F4503E68F1D8
:101DF0001A16F040A22F232F342F4427585FF3CF19
:101E0000469537952795A795F0405395C9F77EF4E9
:101E10001F16BA0B620B730B840BBAF09150A1F032
:101E2000FF0FBB1F661F771F881FC2F70EC0BA0FB8
:101E3000621F731F841F48F4879577956795B79540
:101E4000F7959E3F08F0B0CF9395880F08F099273B
:101E5000EE0F9795879508950E94040E88F09F577E
:101E600098F0B92F9927B751B0F0E1F0660F771FBE
:101E7000881F991F1AF0BA95C9F714C0B13091F0B4
:101E80000E941E0EB1E008950C941E0E672F782F4D
:101E90008827B85F39F0B93FCCF386957795679579
:101EA000B395D9F73EF490958095709561957F4FE5
:101EB0008F4F9F4F08950E94430D08F48FEF0895B0
:101EC0000E94430D880B990B0895991B79E004C07B
:101ED000991F961708F0961B881F7A95C9F7809569
:101EE0000895EE0FFF1F0590F491E02D09940F93D4
:101EF0001F93CF93DF938230910510F482E090E03E
:101F0000E0914103F091420330E020E0B0E0A0E036
:101F1000309799F42115310509F44AC0281B390B73
:101F200024303105D8F58A819B816115710589F1CD
:101F3000FB0193838283FE0111C0408151810281A4
:101F4000138148175907E0F04817590799F410977B
:101F500061F012960C93129713961C933296CF0150
:101F6000DF91CF911F910F9108950093410310933A
:101F70004203F4CF2115310551F04217530738F0D1
:101F8000A901DB019A01BD01DF01F801C1CFEF0119
:101F9000F9CF9093420380934103CDCFFE01E20F2E
:101FA000F31F819391932250310939832883D7CF2E
:101FB00020913F0330914003232B41F420910201F3
:101FC000309103013093400320933F03209100019F
:101FD000309101012115310541F42DB73EB74091F3
:101FE000040150910501241B350BE0913F03F09152
:101FF0004003E217F307A0F42E1B3F0B2817390705
:1020000078F0AC014E5F5F4F2417350748F04E0F54
:102010005F1F5093400340933F03819391939FCF61
:10202000F0E0E0E09CCFCF93DF930097E9F0FC0174
:10203000329713821282A0914103B0914203ED01C5
:1020400030E020E01097A1F420813181820F931FAE
:1020500020913F03309140032817390709F061C0F0
:10206000F0934003E0933F03DF91CF910895EA019D
:10207000CE17DF07E8F54A815B819E0141155105C6
:10208000B1F7E901FB83EA8349915991C40FD51F48
:10209000EC17FD0761F4808191810296840F951FF2
:1020A000E90199838883828193819B838A83F0E00D
:1020B000E0E012968D919C9113970097B9F52D91C0
:1020C0003C911197CD010296820F931F20913F03FF
:1020D000309140032817390739F6309751F510929F
:1020E000420310924103B0934003A0933F03BCCF3F
:1020F000D383C28340815181840F951FC817D907AC
:1021000061F44E5F5F4F88819981480F591F518359
:1021100040838A819B81938382832115310509F055
:10212000B0CFF0934203E09341039ECFFD01DC0169
:10213000C0CF13821282D7CFB0E0A0E0E2EAF0E194
:102140000C94590E8C01009751F4CB010E94770F2B
:102150008C01C801CDB7DEB7E0E10C94750EFC012F
:10216000E60FF71F9C0122503109E217F30708F42C
:102170009DC0D901CD91DC911197C617D70798F072
:10218000C530D10530F3CE0104978617970708F3C1
:10219000C61BD70B2297C193D1936D937C93CF012C
:1021A0000E941310D6CF5B01AC1ABD0A4C018C0EF5
:1021B0009D1EA0914103B0914203512C412CF12C62
:1021C000E12C109731F580913F03909140038815E1
:1021D000990509F05CC04616570608F058C0809172
:1021E000000190910101009741F48DB79EB7409195
:1021F000040150910501841B950BE817F90708F0BD
:1022000055C0F0934003E0933F03F901718360836D
:10221000A0CF8D919C91119712966C901297139666
:102220007C901397A815B90559F56C0142E0C40ECE
:10223000D11CCA14DB0420F1AC014A195B09DA0194
:102240001296159780F06282738251834083D90180
:102250006D937C93E114F10471F0D7011396FC9314
:10226000EE93129776CF22968C0F9D1FF9019183E2
:102270008083F301EFCFF0934203E093410369CFF2
:102280004816590608F42C017D01D3019ACFCB01E1
:102290000E94770F7C01009749F0AE01B8010E94BF
:1022A0005911C8010E941310870153CF10E000E0BC
:1022B00050CFFB01DC0102C001900D924150504013
:1022C000D8F70895FB01DC0101900D920020E1F7A1
:0622D0000895F894FFCF11
:1022D600000043038000000040001400540000008A
:1022E6000000BE029102D40367028A0277026802E6
:1022F60000000000E804D301D4030002536973749C
:10230600656D2048617A697200416B696C6C692061
:102316004F746F7061726B003120003220003320E1
:1023260000342000596F6B004172616320616C6755
:10233600696C616E646900486F732067656C6469D7
:102346006E697A004B617069206163696C6D617AB0
:10235600004F544F5041524B20444F4C5500426F52
:102366007320796572207361796973693A00426FE7
:1023760073207965726C65723A005061726B2065E4
:1023860064696E697A3A00496C65726920676964A6
:10239600696E697A004B617069206163696C69795D
:1023A6006F72004C757466656E2062656B6C65793C
:1023B600696E004B617069206B6170616E69796F3F
:1023C600720053697374656D2068617A6972005989
:1023D600656E692061726163206963696E0041728E
:1023E60061632062656B6C656E69796F7220004D62
:1023F60065736166653A006E616E00696E66006FB0
:0A240600766600636D2020200000C0
:00000001FF
